{
  "_format": "hh-sol-artifact-1",
  "contractName": "AutomotiveSupplyChain",
  "sourceName": "src/backend/contracts/AutomotiveSupplyChain.sol",
  "abi": [
    {
      "inputs": [],
      "stateMutability": "nonpayable",
      "type": "constructor"
    },
    {
      "anonymous": false,
      "inputs": [
        {
          "indexed": false,
          "internalType": "uint256",
          "name": "id",
          "type": "uint256"
        },
        {
          "indexed": false,
          "internalType": "string",
          "name": "name",
          "type": "string"
        },
        {
          "indexed": false,
          "internalType": "uint256",
          "name": "price",
          "type": "uint256"
        },
        {
          "indexed": false,
          "internalType": "string",
          "name": "owner",
          "type": "string"
        },
        {
          "indexed": false,
          "internalType": "address payable",
          "name": "ownerAddress",
          "type": "address"
        },
        {
          "indexed": false,
          "internalType": "bool",
          "name": "isSellable",
          "type": "bool"
        },
        {
          "indexed": false,
          "internalType": "bool",
          "name": "isUpForSale",
          "type": "bool"
        },
        {
          "indexed": false,
          "internalType": "uint256",
          "name": "totalStateLogs",
          "type": "uint256"
        },
        {
          "indexed": false,
          "internalType": "uint256",
          "name": "totalComponents",
          "type": "uint256"
        }
      ],
      "name": "ProductAdded",
      "type": "event"
    },
    {
      "anonymous": false,
      "inputs": [
        {
          "indexed": false,
          "internalType": "uint256",
          "name": "id",
          "type": "uint256"
        },
        {
          "indexed": false,
          "internalType": "string",
          "name": "name",
          "type": "string"
        },
        {
          "indexed": false,
          "internalType": "uint256",
          "name": "price",
          "type": "uint256"
        },
        {
          "indexed": false,
          "internalType": "address payable",
          "name": "owner",
          "type": "address"
        },
        {
          "indexed": false,
          "internalType": "bool",
          "name": "purchased",
          "type": "bool"
        }
      ],
      "name": "ProductPurchased",
      "type": "event"
    },
    {
      "anonymous": false,
      "inputs": [
        {
          "indexed": false,
          "internalType": "uint256",
          "name": "productId",
          "type": "uint256"
        },
        {
          "indexed": false,
          "internalType": "uint256",
          "name": "componentId",
          "type": "uint256"
        },
        {
          "indexed": false,
          "internalType": "uint256[]",
          "name": "arr",
          "type": "uint256[]"
        }
      ],
      "name": "componentAdded",
      "type": "event"
    },
    {
      "anonymous": false,
      "inputs": [
        {
          "indexed": false,
          "internalType": "address",
          "name": "owner",
          "type": "address"
        },
        {
          "indexed": false,
          "internalType": "bool",
          "name": "isUpForSale",
          "type": "bool"
        },
        {
          "indexed": false,
          "internalType": "uint256",
          "name": "price",
          "type": "uint256"
        }
      ],
      "name": "productPutOnSale",
      "type": "event"
    },
    {
      "anonymous": false,
      "inputs": [
        {
          "indexed": false,
          "internalType": "address",
          "name": "owner",
          "type": "address"
        },
        {
          "indexed": false,
          "internalType": "bool",
          "name": "isUpForSale",
          "type": "bool"
        }
      ],
      "name": "productRemovedFromSale",
      "type": "event"
    },
    {
      "anonymous": false,
      "inputs": [
        {
          "indexed": false,
          "internalType": "uint256",
          "name": "productId",
          "type": "uint256"
        },
        {
          "indexed": false,
          "internalType": "address",
          "name": "owner",
          "type": "address"
        },
        {
          "indexed": false,
          "internalType": "string",
          "name": "description",
          "type": "string"
        },
        {
          "indexed": false,
          "internalType": "string",
          "name": "date",
          "type": "string"
        }
      ],
      "name": "stateAdded",
      "type": "event"
    },
    {
      "anonymous": false,
      "inputs": [
        {
          "indexed": false,
          "internalType": "string",
          "name": "companyName",
          "type": "string"
        },
        {
          "indexed": false,
          "internalType": "string",
          "name": "companyRegistrationNumber",
          "type": "string"
        },
        {
          "indexed": false,
          "internalType": "string",
          "name": "description",
          "type": "string"
        },
        {
          "indexed": false,
          "internalType": "address payable",
          "name": "accountAddress",
          "type": "address"
        }
      ],
      "name": "userAdded",
      "type": "event"
    },
    {
      "inputs": [
        {
          "internalType": "uint256",
          "name": "_productId",
          "type": "uint256"
        },
        {
          "internalType": "uint256",
          "name": "_componentId",
          "type": "uint256"
        },
        {
          "internalType": "string",
          "name": "_date",
          "type": "string"
        }
      ],
      "name": "addComponent",
      "outputs": [],
      "stateMutability": "nonpayable",
      "type": "function"
    },
    {
      "inputs": [
        {
          "internalType": "string",
          "name": "_name",
          "type": "string"
        },
        {
          "internalType": "uint256",
          "name": "_price",
          "type": "uint256"
        },
        {
          "internalType": "bool",
          "name": "_isSellable",
          "type": "bool"
        },
        {
          "internalType": "bool",
          "name": "_isUpForSale",
          "type": "bool"
        },
        {
          "internalType": "string",
          "name": "_date",
          "type": "string"
        }
      ],
      "name": "addProduct",
      "outputs": [],
      "stateMutability": "nonpayable",
      "type": "function"
    },
    {
      "inputs": [
        {
          "internalType": "uint256",
          "name": "_productId",
          "type": "uint256"
        },
        {
          "internalType": "string",
          "name": "info",
          "type": "string"
        },
        {
          "internalType": "string",
          "name": "_date",
          "type": "string"
        }
      ],
      "name": "addState",
      "outputs": [],
      "stateMutability": "nonpayable",
      "type": "function"
    },
    {
      "inputs": [
        {
          "internalType": "address payable",
          "name": "_accountAddress",
          "type": "address"
        },
        {
          "internalType": "string",
          "name": "_companyName",
          "type": "string"
        },
        {
          "internalType": "string",
          "name": "_companyRegistrationNumber",
          "type": "string"
        },
        {
          "internalType": "string",
          "name": "_description",
          "type": "string"
        }
      ],
      "name": "addUser",
      "outputs": [],
      "stateMutability": "nonpayable",
      "type": "function"
    },
    {
      "inputs": [],
      "name": "admin",
      "outputs": [
        {
          "internalType": "address",
          "name": "",
          "type": "address"
        }
      ],
      "stateMutability": "view",
      "type": "function"
    },
    {
      "inputs": [
        {
          "internalType": "uint256",
          "name": "_productId",
          "type": "uint256"
        }
      ],
      "name": "getComponents",
      "outputs": [
        {
          "internalType": "uint256[]",
          "name": "",
          "type": "uint256[]"
        }
      ],
      "stateMutability": "view",
      "type": "function"
    },
    {
      "inputs": [
        {
          "internalType": "uint256",
          "name": "_productId",
          "type": "uint256"
        }
      ],
      "name": "getStates",
      "outputs": [
        {
          "components": [
            {
              "internalType": "address",
              "name": "owner",
              "type": "address"
            },
            {
              "internalType": "string",
              "name": "description",
              "type": "string"
            },
            {
              "internalType": "string",
              "name": "date",
              "type": "string"
            }
          ],
          "internalType": "struct AutomotiveSupplyChain.State[]",
          "name": "",
          "type": "tuple[]"
        }
      ],
      "stateMutability": "view",
      "type": "function"
    },
    {
      "inputs": [],
      "name": "name",
      "outputs": [
        {
          "internalType": "string",
          "name": "",
          "type": "string"
        }
      ],
      "stateMutability": "view",
      "type": "function"
    },
    {
      "inputs": [],
      "name": "productCount",
      "outputs": [
        {
          "internalType": "uint256",
          "name": "",
          "type": "uint256"
        }
      ],
      "stateMutability": "view",
      "type": "function"
    },
    {
      "inputs": [
        {
          "internalType": "uint256",
          "name": "",
          "type": "uint256"
        }
      ],
      "name": "products",
      "outputs": [
        {
          "internalType": "uint256",
          "name": "id",
          "type": "uint256"
        },
        {
          "internalType": "string",
          "name": "name",
          "type": "string"
        },
        {
          "internalType": "uint256",
          "name": "price",
          "type": "uint256"
        },
        {
          "internalType": "address payable",
          "name": "ownerAddress",
          "type": "address"
        },
        {
          "internalType": "bool",
          "name": "isSellable",
          "type": "bool"
        },
        {
          "internalType": "bool",
          "name": "isUpForSale",
          "type": "bool"
        },
        {
          "internalType": "uint256",
          "name": "totalStateLogs",
          "type": "uint256"
        },
        {
          "internalType": "uint256",
          "name": "totalComponents",
          "type": "uint256"
        }
      ],
      "stateMutability": "view",
      "type": "function"
    },
    {
      "inputs": [
        {
          "internalType": "uint256",
          "name": "_id",
          "type": "uint256"
        },
        {
          "internalType": "string",
          "name": "_date",
          "type": "string"
        }
      ],
      "name": "purchaseProduct",
      "outputs": [],
      "stateMutability": "payable",
      "type": "function"
    },
    {
      "inputs": [
        {
          "internalType": "uint256",
          "name": "_productId",
          "type": "uint256"
        },
        {
          "internalType": "uint256",
          "name": "_price",
          "type": "uint256"
        }
      ],
      "name": "putProductOnSale",
      "outputs": [],
      "stateMutability": "nonpayable",
      "type": "function"
    },
    {
      "inputs": [
        {
          "internalType": "uint256",
          "name": "_productId",
          "type": "uint256"
        }
      ],
      "name": "removeProductFromSale",
      "outputs": [],
      "stateMutability": "nonpayable",
      "type": "function"
    },
    {
      "inputs": [
        {
          "internalType": "address",
          "name": "",
          "type": "address"
        }
      ],
      "name": "users",
      "outputs": [
        {
          "internalType": "string",
          "name": "companyName",
          "type": "string"
        },
        {
          "internalType": "string",
          "name": "companyRegistrationNumber",
          "type": "string"
        },
        {
          "internalType": "string",
          "name": "description",
          "type": "string"
        },
        {
          "internalType": "address payable",
          "name": "accountAddress",
          "type": "address"
        }
      ],
      "stateMutability": "view",
      "type": "function"
    }
  ],
  "bytecode": "0x608060405260006002553480156200001657600080fd5b5060405180608001604052806042815260200162003ab560429139600090805190602001906200004892919062000090565b5033600160006101000a81548173ffffffffffffffffffffffffffffffffffffffff021916908373ffffffffffffffffffffffffffffffffffffffff160217905550620001a5565b8280546200009e9062000140565b90600052602060002090601f016020900481019282620000c257600085556200010e565b82601f10620000dd57805160ff19168380011785556200010e565b828001600101855582156200010e579182015b828111156200010d578251825591602001919060010190620000f0565b5b5090506200011d919062000121565b5090565b5b808211156200013c57600081600090555060010162000122565b5090565b600060028204905060018216806200015957607f821691505b6020821081141562000170576200016f62000176565b5b50919050565b7f4e487b7100000000000000000000000000000000000000000000000000000000600052602260045260246000fd5b61390080620001b56000396000f3fe6080604052600436106100dd5760003560e01c80639baca24e1161007f578063c6361c2211610059578063c6361c22146102cb578063d987b0d4146102f4578063e0f6ef871461031d578063f851a44014610348576100dd565b80639baca24e14610239578063a4f80e1914610262578063a87430ba1461028b576100dd565b8063398c35ff116100bb578063398c35ff146101735780637acc0b201461019c5780637dcf5857146101e05780638af342461461021d576100dd565b806306fdde03146100e25780631121859a1461010d578063288934721461014a575b600080fd5b3480156100ee57600080fd5b506100f7610373565b6040516101049190612ca5565b60405180910390f35b34801561011957600080fd5b50610134600480360381019061012f919061256a565b610401565b6040516101419190612c61565b60405180910390f35b34801561015657600080fd5b50610171600480360381019061016c91906124c3565b6105f0565b005b34801561017f57600080fd5b5061019a60048036038101906101959190612666565b610a46565b005b3480156101a857600080fd5b506101c360048036038101906101be919061256a565b610c1a565b6040516101d7989796959493929190612f2f565b60405180910390f35b3480156101ec57600080fd5b506102076004803603810190610202919061256a565b610d24565b6040516102149190612c83565b60405180910390f35b61023760048036038101906102329190612593565b610d92565b005b34801561024557600080fd5b50610260600480360381019061025b91906126a2565b61131c565b005b34801561026e57600080fd5b50610289600480360381019061028491906125e7565b611731565b005b34801561029757600080fd5b506102b260048036038101906102ad91906123ef565b611981565b6040516102c29493929190612cc7565b60405180910390f35b3480156102d757600080fd5b506102f260048036038101906102ed9190612418565b611b69565b005b34801561030057600080fd5b5061031b6004803603810190610316919061256a565b611d53565b005b34801561032957600080fd5b50610332611e63565b60405161033f9190612ec1565b60405180910390f35b34801561035457600080fd5b5061035d611e69565b60405161036a9190612be6565b60405180910390f35b6000805461038090613391565b80601f01602080910402602001604051908101604052809291908181526020018280546103ac90613391565b80156103f95780601f106103ce576101008083540402835291602001916103f9565b820191906000526020600020905b8154815290600101906020018083116103dc57829003601f168201915b505050505081565b606060036000838152602001908152602001600020600501805480602002602001604051908101604052809291908181526020016000905b828210156105e557838290600052602060002090600302016040518060600160405290816000820160009054906101000a900473ffffffffffffffffffffffffffffffffffffffff1673ffffffffffffffffffffffffffffffffffffffff1673ffffffffffffffffffffffffffffffffffffffff1681526020016001820180546104c290613391565b80601f01602080910402602001604051908101604052809291908181526020018280546104ee90613391565b801561053b5780601f106105105761010080835404028352916020019161053b565b820191906000526020600020905b81548152906001019060200180831161051e57829003601f168201915b5050505050815260200160028201805461055490613391565b80601f016020809104026020016040519081016040528092919081815260200182805461058090613391565b80156105cd5780601f106105a2576101008083540402835291602001916105cd565b820191906000526020600020905b8154815290600101906020018083116105b057829003601f168201915b50505050508152505081526020019060010190610439565b505050509050919050565b60008551116105fe57600080fd5b6000841161060b57600080fd5b6002600081548092919061061e9061340e565b91905055506002546003600060025481526020019081526020016000206000018190555084600360006002548152602001908152602001600020600101908051906020019061066e929190612290565b5083600360006002548152602001908152602001600020600201819055503360036000600254815260200190815260200160002060030160006101000a81548173ffffffffffffffffffffffffffffffffffffffff021916908373ffffffffffffffffffffffffffffffffffffffff1602179055508260036000600254815260200190815260200160002060030160146101000a81548160ff0219169083151502179055508160036000600254815260200190815260200160002060030160156101000a81548160ff02191690831515021790555060006003600060025481526020019081526020016000206004018190555060006003600060025481526020019081526020016000206006018190555060006040518060400160405280600981526020017f4164646564206279200000000000000000000000000000000000000000000000815250905061088d81600460003373ffffffffffffffffffffffffffffffffffffffff1673ffffffffffffffffffffffffffffffffffffffff168152602001908152602001600020600001805461080a90613391565b80601f016020809104026020016040519081016040528092919081815260200182805461083690613391565b80156108835780601f1061085857610100808354040283529160200191610883565b820191906000526020600020905b81548152906001019060200180831161086657829003601f168201915b5050505050611e8f565b90506108ce816040518060400160405280600381526020017f202d200000000000000000000000000000000000000000000000000000000000815250611e8f565b90506109a481600460003373ffffffffffffffffffffffffffffffffffffffff1673ffffffffffffffffffffffffffffffffffffffff168152602001908152602001600020600201805461092190613391565b80601f016020809104026020016040519081016040528092919081815260200182805461094d90613391565b801561099a5780601f1061096f5761010080835404028352916020019161099a565b820191906000526020600020905b81548152906001019060200180831161097d57829003601f168201915b5050505050611e8f565b90506109b36002548284611731565b7fb7afb11a01f52df3bf859a0b4a9ac9227b4aa55afd34d6e700345d52355946b26002548787600460003373ffffffffffffffffffffffffffffffffffffffff1673ffffffffffffffffffffffffffffffffffffffff168152602001908152602001600020600001338989600080604051610a3699989796959493929190612fb4565b60405180910390a1505050505050565b6003600083815260200190815260200160002060030160009054906101000a900473ffffffffffffffffffffffffffffffffffffffff1673ffffffffffffffffffffffffffffffffffffffff163373ffffffffffffffffffffffffffffffffffffffff1614610aea576040517f08c379a0000000000000000000000000000000000000000000000000000000008152600401610ae190612d61565b60405180910390fd5b6003600083815260200190815260200160002060030160149054906101000a900460ff16610b4d576040517f08c379a0000000000000000000000000000000000000000000000000000000008152600401610b4490612e41565b60405180910390fd5b60008111610b90576040517f08c379a0000000000000000000000000000000000000000000000000000000008152600401610b8790612e81565b60405180910390fd5b60016003600084815260200190815260200160002060030160156101000a81548160ff0219169083151502179055508060036000848152602001908152602001600020600201819055507fff2ce1505335555f1014a4ae55d3eca9dea124a271cf7030e8b0eca11033205b33600183604051610c0e93929190612c2a565b60405180910390a15050565b6003602052806000526040600020600091509050806000015490806001018054610c4390613391565b80601f0160208091040260200160405190810160405280929190818152602001828054610c6f90613391565b8015610cbc5780601f10610c9157610100808354040283529160200191610cbc565b820191906000526020600020905b815481529060010190602001808311610c9f57829003601f168201915b5050505050908060020154908060030160009054906101000a900473ffffffffffffffffffffffffffffffffffffffff16908060030160149054906101000a900460ff16908060030160159054906101000a900460ff16908060040154908060060154905088565b606060036000838152602001908152602001600020600701805480602002602001604051908101604052809291908181526020018280548015610d8657602002820191906000526020600020905b815481526020019060010190808311610d72575b50505050509050919050565b60006003600084815260200190815260200160002060030160009054906101000a900473ffffffffffffffffffffffffffffffffffffffff169050600083118015610ddf57506002548311155b610e1e576040517f08c379a0000000000000000000000000000000000000000000000000000000008152600401610e1590612e21565b60405180910390fd5b6003600084815260200190815260200160002060020154341015610e77576040517f08c379a0000000000000000000000000000000000000000000000000000000008152600401610e6e90612d41565b60405180910390fd5b6003600084815260200190815260200160002060030160149054906101000a900460ff16610eda576040517f08c379a0000000000000000000000000000000000000000000000000000000008152600401610ed190612dc1565b60405180910390fd5b6003600084815260200190815260200160002060030160159054906101000a900460ff16610f3d576040517f08c379a0000000000000000000000000000000000000000000000000000000008152600401610f3490612e01565b60405180910390fd5b3373ffffffffffffffffffffffffffffffffffffffff168173ffffffffffffffffffffffffffffffffffffffff161415610fac576040517f08c379a0000000000000000000000000000000000000000000000000000000008152600401610fa390612ea1565b60405180910390fd5b336003600085815260200190815260200160002060030160006101000a81548173ffffffffffffffffffffffffffffffffffffffff021916908373ffffffffffffffffffffffffffffffffffffffff16021790555060006003600085815260200190815260200160002060030160156101000a81548160ff0219169083151502179055508073ffffffffffffffffffffffffffffffffffffffff166108fc349081150290604051600060405180830381858888f19350505050158015611076573d6000803e3d6000fd5b5060006040518060400160405280600d81526020017f5075726368617365642062792000000000000000000000000000000000000000815250905061118581600460003373ffffffffffffffffffffffffffffffffffffffff1673ffffffffffffffffffffffffffffffffffffffff168152602001908152602001600020600001805461110290613391565b80601f016020809104026020016040519081016040528092919081815260200182805461112e90613391565b801561117b5780601f106111505761010080835404028352916020019161117b565b820191906000526020600020905b81548152906001019060200180831161115e57829003601f168201915b5050505050611e8f565b90506111c6816040518060400160405280600381526020017f202d200000000000000000000000000000000000000000000000000000000000815250611e8f565b905061129c81600460003373ffffffffffffffffffffffffffffffffffffffff1673ffffffffffffffffffffffffffffffffffffffff168152602001908152602001600020600201805461121990613391565b80601f016020809104026020016040519081016040528092919081815260200182805461124590613391565b80156112925780601f1061126757610100808354040283529160200191611292565b820191906000526020600020905b81548152906001019060200180831161127557829003601f168201915b5050505050611e8f565b90506112a9848285611731565b7f79558d0d7d4d900e2f15c4cc0a665f1acdbe415e44de900ecdd1e5bf12b56f4e60025460036000878152602001908152602001600020600101600360008881526020019081526020016000206002015433600160405161130e95949392919061304f565b60405180910390a150505050565b600254831115611361576040517f08c379a000000000000000000000000000000000000000000000000000000000815260040161135890612d21565b60405180910390fd5b6002548211156113a6576040517f08c379a000000000000000000000000000000000000000000000000000000000815260040161139d90612da1565b60405180910390fd5b828214156113e9576040517f08c379a00000000000000000000000000000000000000000000000000000000081526004016113e090612e61565b60405180910390fd5b6003600084815260200190815260200160002060030160009054906101000a900473ffffffffffffffffffffffffffffffffffffffff1673ffffffffffffffffffffffffffffffffffffffff163373ffffffffffffffffffffffffffffffffffffffff161461148d576040517f08c379a000000000000000000000000000000000000000000000000000000000815260040161148490612d81565b60405180910390fd5b6003600084815260200190815260200160002060060160008154809291906114b49061340e565b91905055506003600084815260200190815260200160002060070182908060018154018082558091505060019003906000526020600020016000909190919091505560006003600084815260200190815260200160002060030160146101000a81548160ff02191690831515021790555060006003600084815260200190815260200160002060030160156101000a81548160ff021916908315150217905550336003600084815260200190815260200160002060030160006101000a81548173ffffffffffffffffffffffffffffffffffffffff021916908373ffffffffffffffffffffffffffffffffffffffff16021790555060006040518060400160405280600881526020017f50726f647563742000000000000000000000000000000000000000000000000081525090506115f5816115f0856120e3565b611e8f565b9050611636816040518060400160405280601481526020017f20616464656420617320436f6d706f6e656e742e000000000000000000000000815250611e8f565b9050611643848284611731565b6040518060400160405280601e81526020017f426563616d65206120636f6d706f6e656e74206f662050726f64756374200000815250905061168d81611688866120e3565b611e8f565b90506116ce816040518060400160405280601081526020017f2e204f776e657220757064617465642e00000000000000000000000000000000815250611e8f565b90506116db838284611731565b7f575f2362b3cdeb77bc90c6cbbcb1711b25b823041383c64261defd47e1d0672f848460036000888152602001908152602001600020600701604051611723939291906130a9565b60405180910390a150505050565b600254831115611776576040517f08c379a000000000000000000000000000000000000000000000000000000000815260040161176d90612d21565b60405180910390fd5b6003600084815260200190815260200160002060030160009054906101000a900473ffffffffffffffffffffffffffffffffffffffff1673ffffffffffffffffffffffffffffffffffffffff163373ffffffffffffffffffffffffffffffffffffffff161461181a576040517f08c379a000000000000000000000000000000000000000000000000000000000815260040161181190612d81565b60405180910390fd5b600060405180606001604052803373ffffffffffffffffffffffffffffffffffffffff1681526020018481526020018381525090506003600085815260200190815260200160002060040160008154809291906118769061340e565b91905055506003600085815260200190815260200160002060050181908060018154018082558091505060019003906000526020600020906003020160009091909190915060008201518160000160006101000a81548173ffffffffffffffffffffffffffffffffffffffff021916908373ffffffffffffffffffffffffffffffffffffffff160217905550602082015181600101908051906020019061191e929190612290565b50604082015181600201908051906020019061193b929190612290565b5050507fbf0f4e8aae9f5b108df1a08d2382a284570d80e5af24b25f5b6c821a1ac0c8f2843385856040516119739493929190612edc565b60405180910390a150505050565b60046020528060005260406000206000915090508060000180546119a490613391565b80601f01602080910402602001604051908101604052809291908181526020018280546119d090613391565b8015611a1d5780601f106119f257610100808354040283529160200191611a1d565b820191906000526020600020905b815481529060010190602001808311611a0057829003601f168201915b505050505090806001018054611a3290613391565b80601f0160208091040260200160405190810160405280929190818152602001828054611a5e90613391565b8015611aab5780601f10611a8057610100808354040283529160200191611aab565b820191906000526020600020905b815481529060010190602001808311611a8e57829003601f168201915b505050505090806002018054611ac090613391565b80601f0160208091040260200160405190810160405280929190818152602001828054611aec90613391565b8015611b395780601f10611b0e57610100808354040283529160200191611b39565b820191906000526020600020905b815481529060010190602001808311611b1c57829003601f168201915b5050505050908060030160009054906101000a900473ffffffffffffffffffffffffffffffffffffffff16905084565b600160009054906101000a900473ffffffffffffffffffffffffffffffffffffffff1673ffffffffffffffffffffffffffffffffffffffff163373ffffffffffffffffffffffffffffffffffffffff1614611bf9576040517f08c379a0000000000000000000000000000000000000000000000000000000008152600401611bf090612de1565b60405180910390fd5b60405180608001604052808481526020018381526020018281526020018573ffffffffffffffffffffffffffffffffffffffff16815250600460008673ffffffffffffffffffffffffffffffffffffffff1673ffffffffffffffffffffffffffffffffffffffff1681526020019081526020016000206000820151816000019080519060200190611c8b929190612290565b506020820151816001019080519060200190611ca8929190612290565b506040820151816002019080519060200190611cc5929190612290565b5060608201518160030160006101000a81548173ffffffffffffffffffffffffffffffffffffffff021916908373ffffffffffffffffffffffffffffffffffffffff1602179055509050507fa92a55f78a6235137609e9f47fb1fc88f1e8ecd59623a7c0d7f0f997ecbf83bc83838387604051611d459493929190612cc7565b60405180910390a150505050565b6003600082815260200190815260200160002060030160009054906101000a900473ffffffffffffffffffffffffffffffffffffffff1673ffffffffffffffffffffffffffffffffffffffff163373ffffffffffffffffffffffffffffffffffffffff1614611df7576040517f08c379a0000000000000000000000000000000000000000000000000000000008152600401611dee90612d81565b60405180910390fd5b60006003600083815260200190815260200160002060030160156101000a81548160ff0219169083151502179055507f9e1b654f2866bbc87dd2d31e777be5d0fc4f8a70efde04a7298aaa43446f15e0336000604051611e58929190612c01565b60405180910390a150565b60025481565b600160009054906101000a900473ffffffffffffffffffffffffffffffffffffffff1681565b606060008390506000839050600081518351611eab919061321e565b67ffffffffffffffff811115611eea577f4e487b7100000000000000000000000000000000000000000000000000000000600052604160045260246000fd5b6040519080825280601f01601f191660200182016040528015611f1c5781602001600182028036833780820191505090505b50905060008190506000805b8551811015611ffc57858181518110611f6a577f4e487b7100000000000000000000000000000000000000000000000000000000600052603260045260246000fd5b602001015160f81c60f81b838380611f819061340e565b945081518110611fba577f4e487b7100000000000000000000000000000000000000000000000000000000600052603260045260246000fd5b60200101907effffffffffffffffffffffffffffffffffffffffffffffffffffffffffffff1916908160001a9053508080611ff49061340e565b915050611f28565b5060005b84518110156120d457848181518110612042577f4e487b7100000000000000000000000000000000000000000000000000000000600052603260045260246000fd5b602001015160f81c60f81b8383806120599061340e565b945081518110612092577f4e487b7100000000000000000000000000000000000000000000000000000000600052603260045260246000fd5b60200101907effffffffffffffffffffffffffffffffffffffffffffffffffffffffffffff1916908160001a90535080806120cc9061340e565b915050612000565b50819550505050505092915050565b6060600082141561212b576040518060400160405280600181526020017f3000000000000000000000000000000000000000000000000000000000000000815250905061228b565b600082905060005b6000821461215d5780806121469061340e565b915050600a826121569190613274565b9150612133565b60008167ffffffffffffffff81111561219f577f4e487b7100000000000000000000000000000000000000000000000000000000600052604160045260246000fd5b6040519080825280601f01601f1916602001820160405280156121d15781602001600182028036833780820191505090505b5090505b60008514612284576001826121ea91906132a5565b9150600a856121f99190613457565b6030612205919061321e565b60f81b818381518110612241577f4e487b7100000000000000000000000000000000000000000000000000000000600052603260045260246000fd5b60200101907effffffffffffffffffffffffffffffffffffffffffffffffffffffffffffff1916908160001a905350600a8561227d9190613274565b94506121d5565b8093505050505b919050565b82805461229c90613391565b90600052602060002090601f0160209004810192826122be5760008555612305565b82601f106122d757805160ff1916838001178555612305565b82800160010185558215612305579182015b828111156123045782518255916020019190600101906122e9565b5b5090506123129190612316565b5090565b5b8082111561232f576000816000905550600101612317565b5090565b60006123466123418461310c565b6130e7565b90508281526020810184848401111561235e57600080fd5b61236984828561334f565b509392505050565b6000813590506123808161386e565b92915050565b60008135905061239581613885565b92915050565b6000813590506123aa8161389c565b92915050565b600082601f8301126123c157600080fd5b81356123d1848260208601612333565b91505092915050565b6000813590506123e9816138b3565b92915050565b60006020828403121561240157600080fd5b600061240f84828501612371565b91505092915050565b6000806000806080858703121561242e57600080fd5b600061243c87828801612386565b945050602085013567ffffffffffffffff81111561245957600080fd5b612465878288016123b0565b935050604085013567ffffffffffffffff81111561248257600080fd5b61248e878288016123b0565b925050606085013567ffffffffffffffff8111156124ab57600080fd5b6124b7878288016123b0565b91505092959194509250565b600080600080600060a086880312156124db57600080fd5b600086013567ffffffffffffffff8111156124f557600080fd5b612501888289016123b0565b9550506020612512888289016123da565b94505060406125238882890161239b565b93505060606125348882890161239b565b925050608086013567ffffffffffffffff81111561255157600080fd5b61255d888289016123b0565b9150509295509295909350565b60006020828403121561257c57600080fd5b600061258a848285016123da565b91505092915050565b600080604083850312156125a657600080fd5b60006125b4858286016123da565b925050602083013567ffffffffffffffff8111156125d157600080fd5b6125dd858286016123b0565b9150509250929050565b6000806000606084860312156125fc57600080fd5b600061260a868287016123da565b935050602084013567ffffffffffffffff81111561262757600080fd5b612633868287016123b0565b925050604084013567ffffffffffffffff81111561265057600080fd5b61265c868287016123b0565b9150509250925092565b6000806040838503121561267957600080fd5b6000612687858286016123da565b9250506020612698858286016123da565b9150509250929050565b6000806000606084860312156126b757600080fd5b60006126c5868287016123da565b93505060206126d6868287016123da565b925050604084013567ffffffffffffffff8111156126f357600080fd5b6126ff868287016123b0565b9150509250925092565b60006127158383612b71565b905092915050565b60006127298383612bc8565b60208301905092915050565b61273e816132f5565b82525050565b61274d816132e3565b82525050565b61275c816132e3565b82525050565b600061276d82613187565b61277781856131da565b9350836020820285016127898561313d565b8060005b858110156127c557848403895281516127a68582612709565b94506127b1836131b3565b925060208a0199505060018101905061278d565b50829750879550505050505092915050565b60006127e282613192565b6127ec81856131eb565b93506127f78361314d565b8060005b8381101561282857815161280f888261271d565b975061281a836131c0565b9250506001810190506127fb565b5085935050505092915050565b60006128408261319d565b61284a81856131eb565b93506128558361315d565b8060005b8381101561288d5761286a82613544565b612874888261271d565b975061287f836131cd565b925050600181019050612859565b5085935050505092915050565b6128a381613307565b82525050565b6128b28161333d565b82525050565b60006128c3826131a8565b6128cd81856131fc565b93506128dd81856020860161335e565b6128e681613557565b840191505092915050565b60006128fc826131a8565b612906818561320d565b935061291681856020860161335e565b61291f81613557565b840191505092915050565b6000815461293781613391565b612941818661320d565b9450600182166000811461295c576001811461296e576129a1565b60ff19831686526020860193506129a1565b61297785613172565b60005b838110156129995781548189015260018201915060208101905061297a565b808801955050505b50505092915050565b60006129b760128361320d565b91506129c282613575565b602082019050919050565b60006129da60228361320d565b91506129e58261359e565b604082019050919050565b60006129fd60258361320d565b9150612a08826135ed565b604082019050919050565b6000612a2060278361320d565b9150612a2b8261363c565b604082019050919050565b6000612a4360148361320d565b9150612a4e8261368b565b602082019050919050565b6000612a6660248361320d565b9150612a71826136b4565b604082019050919050565b6000612a89601e8361320d565b9150612a9482613703565b602082019050919050565b6000612aac601a8361320d565b9150612ab78261372c565b602082019050919050565b6000612acf60128361320d565b9150612ada82613755565b602082019050919050565b6000612af2602a8361320d565b9150612afd8261377e565b604082019050919050565b6000612b15602d8361320d565b9150612b20826137cd565b604082019050919050565b6000612b38600d8361320d565b9150612b438261381c565b602082019050919050565b6000612b5b60168361320d565b9150612b6682613845565b602082019050919050565b6000606083016000830151612b896000860182612744565b5060208301518482036020860152612ba182826128b8565b91505060408301518482036040860152612bbb82826128b8565b9150508091505092915050565b612bd181613333565b82525050565b612be081613333565b82525050565b6000602082019050612bfb6000830184612753565b92915050565b6000604082019050612c166000830185612753565b612c23602083018461289a565b9392505050565b6000606082019050612c3f6000830186612753565b612c4c602083018561289a565b612c596040830184612bd7565b949350505050565b60006020820190508181036000830152612c7b8184612762565b905092915050565b60006020820190508181036000830152612c9d81846127d7565b905092915050565b60006020820190508181036000830152612cbf81846128f1565b905092915050565b60006080820190508181036000830152612ce181876128f1565b90508181036020830152612cf581866128f1565b90508181036040830152612d0981856128f1565b9050612d186060830184612735565b95945050505050565b60006020820190508181036000830152612d3a816129aa565b9050919050565b60006020820190508181036000830152612d5a816129cd565b9050919050565b60006020820190508181036000830152612d7a816129f0565b9050919050565b60006020820190508181036000830152612d9a81612a13565b9050919050565b60006020820190508181036000830152612dba81612a36565b9050919050565b60006020820190508181036000830152612dda81612a59565b9050919050565b60006020820190508181036000830152612dfa81612a7c565b9050919050565b60006020820190508181036000830152612e1a81612a9f565b9050919050565b60006020820190508181036000830152612e3a81612ac2565b9050919050565b60006020820190508181036000830152612e5a81612ae5565b9050919050565b60006020820190508181036000830152612e7a81612b08565b9050919050565b60006020820190508181036000830152612e9a81612b2b565b9050919050565b60006020820190508181036000830152612eba81612b4e565b9050919050565b6000602082019050612ed66000830184612bd7565b92915050565b6000608082019050612ef16000830187612bd7565b612efe6020830186612753565b8181036040830152612f1081856128f1565b90508181036060830152612f2481846128f1565b905095945050505050565b600061010082019050612f45600083018b612bd7565b8181036020830152612f57818a6128f1565b9050612f666040830189612bd7565b612f736060830188612735565b612f80608083018761289a565b612f8d60a083018661289a565b612f9a60c0830185612bd7565b612fa760e0830184612bd7565b9998505050505050505050565b600061012082019050612fca600083018c612bd7565b8181036020830152612fdc818b6128f1565b9050612feb604083018a612bd7565b8181036060830152612ffd818961292a565b905061300c6080830188612735565b61301960a083018761289a565b61302660c083018661289a565b61303360e08301856128a9565b6130416101008301846128a9565b9a9950505050505050505050565b600060a0820190506130646000830188612bd7565b8181036020830152613076818761292a565b90506130856040830186612bd7565b6130926060830185612735565b61309f608083018461289a565b9695505050505050565b60006060820190506130be6000830186612bd7565b6130cb6020830185612bd7565b81810360408301526130dd8184612835565b9050949350505050565b60006130f1613102565b90506130fd82826133dd565b919050565b6000604051905090565b600067ffffffffffffffff82111561312757613126613515565b5b61313082613557565b9050602081019050919050565b6000819050602082019050919050565b6000819050602082019050919050565b60008190508160005260206000209050919050565b60008190508160005260206000209050919050565b600081519050919050565b600081519050919050565b600081549050919050565b600081519050919050565b6000602082019050919050565b6000602082019050919050565b6000600182019050919050565b600082825260208201905092915050565b600082825260208201905092915050565b600082825260208201905092915050565b600082825260208201905092915050565b600061322982613333565b915061323483613333565b9250827fffffffffffffffffffffffffffffffffffffffffffffffffffffffffffffffff0382111561326957613268613488565b5b828201905092915050565b600061327f82613333565b915061328a83613333565b92508261329a576132996134b7565b5b828204905092915050565b60006132b082613333565b91506132bb83613333565b9250828210156132ce576132cd613488565b5b828203905092915050565b6000819050919050565b60006132ee82613313565b9050919050565b600061330082613313565b9050919050565b60008115159050919050565b600073ffffffffffffffffffffffffffffffffffffffff82169050919050565b6000819050919050565b600061334882613333565b9050919050565b82818337600083830152505050565b60005b8381101561337c578082015181840152602081019050613361565b8381111561338b576000848401525b50505050565b600060028204905060018216806133a957607f821691505b602082108114156133bd576133bc6134e6565b5b50919050565b60006133d66133d183613568565b6132d9565b9050919050565b6133e682613557565b810181811067ffffffffffffffff8211171561340557613404613515565b5b80604052505050565b600061341982613333565b91507fffffffffffffffffffffffffffffffffffffffffffffffffffffffffffffffff82141561344c5761344b613488565b5b600182019050919050565b600061346282613333565b915061346d83613333565b92508261347d5761347c6134b7565b5b828206905092915050565b7f4e487b7100000000000000000000000000000000000000000000000000000000600052601160045260246000fd5b7f4e487b7100000000000000000000000000000000000000000000000000000000600052601260045260246000fd5b7f4e487b7100000000000000000000000000000000000000000000000000000000600052602260045260246000fd5b7f4e487b7100000000000000000000000000000000000000000000000000000000600052604160045260246000fd5b600061355082546133c3565b9050919050565b6000601f19601f8301169050919050565b60008160001c9050919050565b7f496e76616c69642050726f647563742049640000000000000000000000000000600082015250565b7f496e73756666696369656e7420657468657273202d20696e206d73672e76616c60008201527f7565000000000000000000000000000000000000000000000000000000000000602082015250565b7f4f6e6c7920746865206f776e65722063616e2073656c6c20746865697220707260008201527f6f64756374000000000000000000000000000000000000000000000000000000602082015250565b7f4f6e6c7920746865206f776e65722063616e207570646174652074686569722060008201527f70726f6475637400000000000000000000000000000000000000000000000000602082015250565b7f496e76616c696420436f6d706f6e656e74204964000000000000000000000000600082015250565b7f50726f64756374206973206e6f742073656c6c61626c6520696e64697669647560008201527f616c6c7900000000000000000000000000000000000000000000000000000000602082015250565b7f4f6e6c792041646d696e2063616e207265676973746572207573657273210000600082015250565b7f50726f64756374206973206e6f7420757020666f722073616c65000000000000600082015250565b7f496e76616c69642070726f647563742049440000000000000000000000000000600082015250565b7f43616e27742073656c6c2070726f6475637420636f6d706f6e656e747320696e60008201527f646976696475616c6c7900000000000000000000000000000000000000000000602082015250565b7f436f6d706f6e656e742049442063616e277420626520657175616c20746f207460008201527f68652070726f6475637420494400000000000000000000000000000000000000602082015250565b7f496e76616c696420707269636500000000000000000000000000000000000000600082015250565b7f43616e27742073656c6c20746f20796f757273656c6600000000000000000000600082015250565b613877816132e3565b811461388257600080fd5b50565b61388e816132f5565b811461389957600080fd5b50565b6138a581613307565b81146138b057600080fd5b50565b6138bc81613333565b81146138c757600080fd5b5056fea2646970667358221220a1d77e19074f5bd24e5f3a2c85e022ee6215b87b4ded2a8931441f3da659b99f64736f6c634300080400334175746f6d6f7469766520537570706c696572205061796d656e7473202d204d61726b6574706c61636520666f72204175746f6d6f62696c6520696e647573747279",
  "linkReferences": {},
  "deployedLinkReferences": {}
}