{
  "_format": "hh-sol-artifact-1",
  "contractName": "AutomotiveSupplyChain",
  "sourceName": "src/backend/contracts/AutomotiveSupplyChain.sol",
  "abi": [
    {
      "inputs": [],
      "stateMutability": "nonpayable",
      "type": "constructor"
    },
    {
      "anonymous": false,
      "inputs": [
        {
          "indexed": false,
          "internalType": "uint256",
          "name": "id",
          "type": "uint256"
        },
        {
          "indexed": false,
          "internalType": "string",
          "name": "name",
          "type": "string"
        },
        {
          "indexed": false,
          "internalType": "uint256",
          "name": "price",
          "type": "uint256"
        },
        {
          "indexed": false,
          "internalType": "string",
          "name": "owner",
          "type": "string"
        },
        {
          "indexed": false,
          "internalType": "address payable",
          "name": "ownerAddress",
          "type": "address"
        },
        {
          "indexed": false,
          "internalType": "bool",
          "name": "isSellable",
          "type": "bool"
        },
        {
          "indexed": false,
          "internalType": "bool",
          "name": "isUpForSale",
          "type": "bool"
        },
        {
          "indexed": false,
          "internalType": "uint256",
          "name": "totalStateLogs",
          "type": "uint256"
        },
        {
          "indexed": false,
          "internalType": "uint256",
          "name": "totalComponents",
          "type": "uint256"
        }
      ],
      "name": "ProductAdded",
      "type": "event"
    },
    {
      "anonymous": false,
      "inputs": [
        {
          "indexed": false,
          "internalType": "uint256",
          "name": "id",
          "type": "uint256"
        },
        {
          "indexed": false,
          "internalType": "string",
          "name": "name",
          "type": "string"
        },
        {
          "indexed": false,
          "internalType": "uint256",
          "name": "price",
          "type": "uint256"
        },
        {
          "indexed": false,
          "internalType": "address payable",
          "name": "owner",
          "type": "address"
        },
        {
          "indexed": false,
          "internalType": "bool",
          "name": "purchased",
          "type": "bool"
        }
      ],
      "name": "ProductPurchased",
      "type": "event"
    },
    {
      "anonymous": false,
      "inputs": [
        {
          "indexed": false,
          "internalType": "uint256",
          "name": "productId",
          "type": "uint256"
        },
        {
          "indexed": false,
          "internalType": "uint256",
          "name": "componentId",
          "type": "uint256"
        }
      ],
      "name": "componentAdded",
      "type": "event"
    },
    {
      "anonymous": false,
      "inputs": [
        {
          "indexed": false,
          "internalType": "address",
          "name": "owner",
          "type": "address"
        },
        {
          "indexed": false,
          "internalType": "bool",
          "name": "isUpForSale",
          "type": "bool"
        },
        {
          "indexed": false,
          "internalType": "uint256",
          "name": "price",
          "type": "uint256"
        }
      ],
      "name": "productPutOnSale",
      "type": "event"
    },
    {
      "anonymous": false,
      "inputs": [
        {
          "indexed": false,
          "internalType": "address",
          "name": "owner",
          "type": "address"
        },
        {
          "indexed": false,
          "internalType": "bool",
          "name": "isUpForSale",
          "type": "bool"
        }
      ],
      "name": "productRemovedFromSale",
      "type": "event"
    },
    {
      "anonymous": false,
      "inputs": [
        {
          "indexed": false,
          "internalType": "uint256",
          "name": "productId",
          "type": "uint256"
        },
        {
          "indexed": false,
          "internalType": "address",
          "name": "owner",
          "type": "address"
        },
        {
          "indexed": false,
          "internalType": "string",
          "name": "description",
          "type": "string"
        },
        {
          "indexed": false,
          "internalType": "string",
          "name": "date",
          "type": "string"
        }
      ],
      "name": "stateAdded",
      "type": "event"
    },
    {
      "anonymous": false,
      "inputs": [
        {
          "indexed": false,
          "internalType": "string",
          "name": "companyName",
          "type": "string"
        },
        {
          "indexed": false,
          "internalType": "string",
          "name": "companyRegistrationNumber",
          "type": "string"
        },
        {
          "indexed": false,
          "internalType": "string",
          "name": "description",
          "type": "string"
        },
        {
          "indexed": false,
          "internalType": "address payable",
          "name": "accountAddress",
          "type": "address"
        }
      ],
      "name": "userAdded",
      "type": "event"
    },
    {
      "inputs": [
        {
          "internalType": "uint256",
          "name": "_productId",
          "type": "uint256"
        },
        {
          "internalType": "uint256",
          "name": "_componentId",
          "type": "uint256"
        }
      ],
      "name": "addComponent",
      "outputs": [],
      "stateMutability": "nonpayable",
      "type": "function"
    },
    {
      "inputs": [
        {
          "internalType": "string",
          "name": "_name",
          "type": "string"
        },
        {
          "internalType": "uint256",
          "name": "_price",
          "type": "uint256"
        },
        {
          "internalType": "bool",
          "name": "_isSellable",
          "type": "bool"
        },
        {
          "internalType": "bool",
          "name": "_isUpForSale",
          "type": "bool"
        },
        {
          "internalType": "string",
          "name": "_date",
          "type": "string"
        }
      ],
      "name": "addProduct",
      "outputs": [],
      "stateMutability": "nonpayable",
      "type": "function"
    },
    {
      "inputs": [
        {
          "internalType": "uint256",
          "name": "_productId",
          "type": "uint256"
        },
        {
          "internalType": "string",
          "name": "info",
          "type": "string"
        },
        {
          "internalType": "string",
          "name": "_date",
          "type": "string"
        }
      ],
      "name": "addState",
      "outputs": [],
      "stateMutability": "nonpayable",
      "type": "function"
    },
    {
      "inputs": [
        {
          "internalType": "address payable",
          "name": "_accountAddress",
          "type": "address"
        },
        {
          "internalType": "string",
          "name": "_companyName",
          "type": "string"
        },
        {
          "internalType": "string",
          "name": "_companyRegistrationNumber",
          "type": "string"
        },
        {
          "internalType": "string",
          "name": "_description",
          "type": "string"
        }
      ],
      "name": "addUser",
      "outputs": [],
      "stateMutability": "nonpayable",
      "type": "function"
    },
    {
      "inputs": [],
      "name": "admin",
      "outputs": [
        {
          "internalType": "address",
          "name": "",
          "type": "address"
        }
      ],
      "stateMutability": "view",
      "type": "function"
    },
    {
      "inputs": [],
      "name": "name",
      "outputs": [
        {
          "internalType": "string",
          "name": "",
          "type": "string"
        }
      ],
      "stateMutability": "view",
      "type": "function"
    },
    {
      "inputs": [],
      "name": "productCount",
      "outputs": [
        {
          "internalType": "uint256",
          "name": "",
          "type": "uint256"
        }
      ],
      "stateMutability": "view",
      "type": "function"
    },
    {
      "inputs": [
        {
          "internalType": "uint256",
          "name": "",
          "type": "uint256"
        }
      ],
      "name": "products",
      "outputs": [
        {
          "internalType": "uint256",
          "name": "id",
          "type": "uint256"
        },
        {
          "internalType": "string",
          "name": "name",
          "type": "string"
        },
        {
          "internalType": "uint256",
          "name": "price",
          "type": "uint256"
        },
        {
          "internalType": "address payable",
          "name": "ownerAddress",
          "type": "address"
        },
        {
          "internalType": "bool",
          "name": "isSellable",
          "type": "bool"
        },
        {
          "internalType": "bool",
          "name": "isUpForSale",
          "type": "bool"
        },
        {
          "internalType": "uint256",
          "name": "totalStateLogs",
          "type": "uint256"
        },
        {
          "internalType": "uint256",
          "name": "totalComponents",
          "type": "uint256"
        }
      ],
      "stateMutability": "view",
      "type": "function"
    },
    {
      "inputs": [
        {
          "internalType": "uint256",
          "name": "_id",
          "type": "uint256"
        },
        {
          "internalType": "string",
          "name": "_date",
          "type": "string"
        }
      ],
      "name": "purchaseProduct",
      "outputs": [],
      "stateMutability": "payable",
      "type": "function"
    },
    {
      "inputs": [
        {
          "internalType": "uint256",
          "name": "_productId",
          "type": "uint256"
        },
        {
          "internalType": "uint256",
          "name": "_price",
          "type": "uint256"
        }
      ],
      "name": "putProductOnSale",
      "outputs": [],
      "stateMutability": "nonpayable",
      "type": "function"
    },
    {
      "inputs": [
        {
          "internalType": "uint256",
          "name": "_productId",
          "type": "uint256"
        }
      ],
      "name": "removeProductFromSale",
      "outputs": [],
      "stateMutability": "nonpayable",
      "type": "function"
    },
    {
      "inputs": [
        {
          "internalType": "address",
          "name": "",
          "type": "address"
        }
      ],
      "name": "users",
      "outputs": [
        {
          "internalType": "string",
          "name": "companyName",
          "type": "string"
        },
        {
          "internalType": "string",
          "name": "companyRegistrationNumber",
          "type": "string"
        },
        {
          "internalType": "string",
          "name": "description",
          "type": "string"
        },
        {
          "internalType": "address payable",
          "name": "accountAddress",
          "type": "address"
        }
      ],
      "stateMutability": "view",
      "type": "function"
    }
  ],
  "bytecode": "0x608060405260006002553480156200001657600080fd5b5060405180608001604052806042815260200162002f5460429139600090805190602001906200004892919062000090565b5033600160006101000a81548173ffffffffffffffffffffffffffffffffffffffff021916908373ffffffffffffffffffffffffffffffffffffffff160217905550620001a5565b8280546200009e9062000140565b90600052602060002090601f016020900481019282620000c257600085556200010e565b82601f10620000dd57805160ff19168380011785556200010e565b828001600101855582156200010e579182015b828111156200010d578251825591602001919060010190620000f0565b5b5090506200011d919062000121565b5090565b5b808211156200013c57600081600090555060010162000122565b5090565b600060028204905060018216806200015957607f821691505b6020821081141562000170576200016f62000176565b5b50919050565b7f4e487b7100000000000000000000000000000000000000000000000000000000600052602260045260246000fd5b612d9f80620001b56000396000f3fe6080604052600436106100a75760003560e01c8063a4f80e1911610064578063a4f80e19146101b2578063a87430ba146101db578063c6361c221461021b578063d987b0d414610244578063e0f6ef871461026d578063f851a44014610298576100a7565b806306fdde03146100ac5780630d6ba960146100d75780632889347214610100578063398c35ff146101295780637acc0b20146101525780638af3424614610196575b600080fd5b3480156100b857600080fd5b506100c16102c3565b6040516100ce9190612381565b60405180910390f35b3480156100e357600080fd5b506100fe60048036038101906100f99190612022565b610351565b005b34801561010c57600080fd5b5061012760048036038101906101229190611e7f565b6105dd565b005b34801561013557600080fd5b50610150600480360381019061014b9190612022565b610a33565b005b34801561015e57600080fd5b5061017960048036038101906101749190611f26565b610c07565b60405161018d9897969594939291906125eb565b60405180910390f35b6101b060048036038101906101ab9190611f4f565b610d11565b005b3480156101be57600080fd5b506101d960048036038101906101d49190611fa3565b61129b565b005b3480156101e757600080fd5b5061020260048036038101906101fd9190611dab565b6114ea565b60405161021294939291906123a3565b60405180910390f35b34801561022757600080fd5b50610242600480360381019061023d9190611dd4565b6116d2565b005b34801561025057600080fd5b5061026b60048036038101906102669190611f26565b6118bc565b005b34801561027957600080fd5b506102826119cc565b60405161028f919061257d565b60405180910390f35b3480156102a457600080fd5b506102ad6119d2565b6040516102ba9190612306565b60405180910390f35b600080546102d090612919565b80601f01602080910402602001604051908101604052809291908181526020018280546102fc90612919565b80156103495780601f1061031e57610100808354040283529160200191610349565b820191906000526020600020905b81548152906001019060200180831161032c57829003601f168201915b505050505081565b600254821115610396576040517f08c379a000000000000000000000000000000000000000000000000000000000815260040161038d906123fd565b60405180910390fd5b6002548111156103db576040517f08c379a00000000000000000000000000000000000000000000000000000000081526004016103d29061247d565b60405180910390fd5b6003600083815260200190815260200160002060030160009054906101000a900473ffffffffffffffffffffffffffffffffffffffff1673ffffffffffffffffffffffffffffffffffffffff163373ffffffffffffffffffffffffffffffffffffffff161461047f576040517f08c379a00000000000000000000000000000000000000000000000000000000081526004016104769061245d565b60405180910390fd5b8060036000848152602001908152602001600020600701600060036000868152602001908152602001600020600601548152602001908152602001600020819055506003600083815260200190815260200160002060060160008154809291906104e89061297c565b919050555060006003600083815260200190815260200160002060030160146101000a81548160ff02191690831515021790555060006003600083815260200190815260200160002060030160156101000a81548160ff021916908315150217905550336003600083815260200190815260200160002060030160006101000a81548173ffffffffffffffffffffffffffffffffffffffff021916908373ffffffffffffffffffffffffffffffffffffffff1602179055507fa69cf215420f75d67d1bbf3b6887ff55c33107ed9358749951169e1981b8831782826040516105d1929190612765565b60405180910390a15050565b60008551116105eb57600080fd5b600084116105f857600080fd5b6002600081548092919061060b9061297c565b91905055506002546003600060025481526020019081526020016000206000018190555084600360006002548152602001908152602001600020600101908051906020019061065b929190611c4c565b5083600360006002548152602001908152602001600020600201819055503360036000600254815260200190815260200160002060030160006101000a81548173ffffffffffffffffffffffffffffffffffffffff021916908373ffffffffffffffffffffffffffffffffffffffff1602179055508260036000600254815260200190815260200160002060030160146101000a81548160ff0219169083151502179055508160036000600254815260200190815260200160002060030160156101000a81548160ff02191690831515021790555060006003600060025481526020019081526020016000206004018190555060006003600060025481526020019081526020016000206006018190555060006040518060400160405280600981526020017f4164646564206279200000000000000000000000000000000000000000000000815250905061087a81600460003373ffffffffffffffffffffffffffffffffffffffff1673ffffffffffffffffffffffffffffffffffffffff16815260200190815260200160002060000180546107f790612919565b80601f016020809104026020016040519081016040528092919081815260200182805461082390612919565b80156108705780601f1061084557610100808354040283529160200191610870565b820191906000526020600020905b81548152906001019060200180831161085357829003601f168201915b50505050506119f8565b90506108bb816040518060400160405280600381526020017f202d2000000000000000000000000000000000000000000000000000000000008152506119f8565b905061099181600460003373ffffffffffffffffffffffffffffffffffffffff1673ffffffffffffffffffffffffffffffffffffffff168152602001908152602001600020600201805461090e90612919565b80601f016020809104026020016040519081016040528092919081815260200182805461093a90612919565b80156109875780601f1061095c57610100808354040283529160200191610987565b820191906000526020600020905b81548152906001019060200180831161096a57829003601f168201915b50505050506119f8565b90506109a0600254828461129b565b7fb7afb11a01f52df3bf859a0b4a9ac9227b4aa55afd34d6e700345d52355946b26002548787600460003373ffffffffffffffffffffffffffffffffffffffff1673ffffffffffffffffffffffffffffffffffffffff168152602001908152602001600020600001338989600080604051610a2399989796959493929190612670565b60405180910390a1505050505050565b6003600083815260200190815260200160002060030160009054906101000a900473ffffffffffffffffffffffffffffffffffffffff1673ffffffffffffffffffffffffffffffffffffffff163373ffffffffffffffffffffffffffffffffffffffff1614610ad7576040517f08c379a0000000000000000000000000000000000000000000000000000000008152600401610ace9061243d565b60405180910390fd5b6003600083815260200190815260200160002060030160149054906101000a900460ff16610b3a576040517f08c379a0000000000000000000000000000000000000000000000000000000008152600401610b319061251d565b60405180910390fd5b60008111610b7d576040517f08c379a0000000000000000000000000000000000000000000000000000000008152600401610b749061253d565b60405180910390fd5b60016003600084815260200190815260200160002060030160156101000a81548160ff0219169083151502179055508060036000848152602001908152602001600020600201819055507fff2ce1505335555f1014a4ae55d3eca9dea124a271cf7030e8b0eca11033205b33600183604051610bfb9392919061234a565b60405180910390a15050565b6003602052806000526040600020600091509050806000015490806001018054610c3090612919565b80601f0160208091040260200160405190810160405280929190818152602001828054610c5c90612919565b8015610ca95780601f10610c7e57610100808354040283529160200191610ca9565b820191906000526020600020905b815481529060010190602001808311610c8c57829003601f168201915b5050505050908060020154908060030160009054906101000a900473ffffffffffffffffffffffffffffffffffffffff16908060030160149054906101000a900460ff16908060030160159054906101000a900460ff16908060040154908060060154905088565b60006003600084815260200190815260200160002060030160009054906101000a900473ffffffffffffffffffffffffffffffffffffffff169050600083118015610d5e57506002548311155b610d9d576040517f08c379a0000000000000000000000000000000000000000000000000000000008152600401610d94906124fd565b60405180910390fd5b6003600084815260200190815260200160002060020154341015610df6576040517f08c379a0000000000000000000000000000000000000000000000000000000008152600401610ded9061241d565b60405180910390fd5b6003600084815260200190815260200160002060030160149054906101000a900460ff16610e59576040517f08c379a0000000000000000000000000000000000000000000000000000000008152600401610e509061249d565b60405180910390fd5b6003600084815260200190815260200160002060030160159054906101000a900460ff16610ebc576040517f08c379a0000000000000000000000000000000000000000000000000000000008152600401610eb3906124dd565b60405180910390fd5b3373ffffffffffffffffffffffffffffffffffffffff168173ffffffffffffffffffffffffffffffffffffffff161415610f2b576040517f08c379a0000000000000000000000000000000000000000000000000000000008152600401610f229061255d565b60405180910390fd5b336003600085815260200190815260200160002060030160006101000a81548173ffffffffffffffffffffffffffffffffffffffff021916908373ffffffffffffffffffffffffffffffffffffffff16021790555060006003600085815260200190815260200160002060030160156101000a81548160ff0219169083151502179055508073ffffffffffffffffffffffffffffffffffffffff166108fc349081150290604051600060405180830381858888f19350505050158015610ff5573d6000803e3d6000fd5b5060006040518060400160405280600d81526020017f5075726368617365642062792000000000000000000000000000000000000000815250905061110481600460003373ffffffffffffffffffffffffffffffffffffffff1673ffffffffffffffffffffffffffffffffffffffff168152602001908152602001600020600001805461108190612919565b80601f01602080910402602001604051908101604052809291908181526020018280546110ad90612919565b80156110fa5780601f106110cf576101008083540402835291602001916110fa565b820191906000526020600020905b8154815290600101906020018083116110dd57829003601f168201915b50505050506119f8565b9050611145816040518060400160405280600381526020017f202d2000000000000000000000000000000000000000000000000000000000008152506119f8565b905061121b81600460003373ffffffffffffffffffffffffffffffffffffffff1673ffffffffffffffffffffffffffffffffffffffff168152602001908152602001600020600201805461119890612919565b80601f01602080910402602001604051908101604052809291908181526020018280546111c490612919565b80156112115780601f106111e657610100808354040283529160200191611211565b820191906000526020600020905b8154815290600101906020018083116111f457829003601f168201915b50505050506119f8565b905061122884828561129b565b7f79558d0d7d4d900e2f15c4cc0a665f1acdbe415e44de900ecdd1e5bf12b56f4e60025460036000878152602001908152602001600020600101600360008881526020019081526020016000206002015433600160405161128d95949392919061270b565b60405180910390a150505050565b6002548311156112e0576040517f08c379a00000000000000000000000000000000000000000000000000000000081526004016112d7906123fd565b60405180910390fd5b6003600084815260200190815260200160002060030160009054906101000a900473ffffffffffffffffffffffffffffffffffffffff1673ffffffffffffffffffffffffffffffffffffffff163373ffffffffffffffffffffffffffffffffffffffff1614611384576040517f08c379a000000000000000000000000000000000000000000000000000000000815260040161137b9061245d565b60405180910390fd5b600060405180606001604052803373ffffffffffffffffffffffffffffffffffffffff168152602001848152602001838152509050806003600086815260200190815260200160002060050160006003600088815260200190815260200160002060040154815260200190815260200160002060008201518160000160006101000a81548173ffffffffffffffffffffffffffffffffffffffff021916908373ffffffffffffffffffffffffffffffffffffffff160217905550602082015181600101908051906020019061145a929190611c4c565b506040820151816002019080519060200190611477929190611c4c565b509050506003600085815260200190815260200160002060040160008154809291906114a29061297c565b91905055507fbf0f4e8aae9f5b108df1a08d2382a284570d80e5af24b25f5b6c821a1ac0c8f2843385856040516114dc9493929190612598565b60405180910390a150505050565b600460205280600052604060002060009150905080600001805461150d90612919565b80601f016020809104026020016040519081016040528092919081815260200182805461153990612919565b80156115865780601f1061155b57610100808354040283529160200191611586565b820191906000526020600020905b81548152906001019060200180831161156957829003601f168201915b50505050509080600101805461159b90612919565b80601f01602080910402602001604051908101604052809291908181526020018280546115c790612919565b80156116145780601f106115e957610100808354040283529160200191611614565b820191906000526020600020905b8154815290600101906020018083116115f757829003601f168201915b50505050509080600201805461162990612919565b80601f016020809104026020016040519081016040528092919081815260200182805461165590612919565b80156116a25780601f10611677576101008083540402835291602001916116a2565b820191906000526020600020905b81548152906001019060200180831161168557829003601f168201915b5050505050908060030160009054906101000a900473ffffffffffffffffffffffffffffffffffffffff16905084565b600160009054906101000a900473ffffffffffffffffffffffffffffffffffffffff1673ffffffffffffffffffffffffffffffffffffffff163373ffffffffffffffffffffffffffffffffffffffff1614611762576040517f08c379a0000000000000000000000000000000000000000000000000000000008152600401611759906124bd565b60405180910390fd5b60405180608001604052808481526020018381526020018281526020018573ffffffffffffffffffffffffffffffffffffffff16815250600460008673ffffffffffffffffffffffffffffffffffffffff1673ffffffffffffffffffffffffffffffffffffffff16815260200190815260200160002060008201518160000190805190602001906117f4929190611c4c565b506020820151816001019080519060200190611811929190611c4c565b50604082015181600201908051906020019061182e929190611c4c565b5060608201518160030160006101000a81548173ffffffffffffffffffffffffffffffffffffffff021916908373ffffffffffffffffffffffffffffffffffffffff1602179055509050507fa92a55f78a6235137609e9f47fb1fc88f1e8ecd59623a7c0d7f0f997ecbf83bc838383876040516118ae94939291906123a3565b60405180910390a150505050565b6003600082815260200190815260200160002060030160009054906101000a900473ffffffffffffffffffffffffffffffffffffffff1673ffffffffffffffffffffffffffffffffffffffff163373ffffffffffffffffffffffffffffffffffffffff1614611960576040517f08c379a00000000000000000000000000000000000000000000000000000000081526004016119579061245d565b60405180910390fd5b60006003600083815260200190815260200160002060030160156101000a81548160ff0219169083151502179055507f9e1b654f2866bbc87dd2d31e777be5d0fc4f8a70efde04a7298aaa43446f15e03360006040516119c1929190612321565b60405180910390a150565b60025481565b600160009054906101000a900473ffffffffffffffffffffffffffffffffffffffff1681565b606060008390506000839050600081518351611a149190612815565b67ffffffffffffffff811115611a53577f4e487b7100000000000000000000000000000000000000000000000000000000600052604160045260246000fd5b6040519080825280601f01601f191660200182016040528015611a855781602001600182028036833780820191505090505b50905060008190506000805b8551811015611b6557858181518110611ad3577f4e487b7100000000000000000000000000000000000000000000000000000000600052603260045260246000fd5b602001015160f81c60f81b838380611aea9061297c565b945081518110611b23577f4e487b7100000000000000000000000000000000000000000000000000000000600052603260045260246000fd5b60200101907effffffffffffffffffffffffffffffffffffffffffffffffffffffffffffff1916908160001a9053508080611b5d9061297c565b915050611a91565b5060005b8451811015611c3d57848181518110611bab577f4e487b7100000000000000000000000000000000000000000000000000000000600052603260045260246000fd5b602001015160f81c60f81b838380611bc29061297c565b945081518110611bfb577f4e487b7100000000000000000000000000000000000000000000000000000000600052603260045260246000fd5b60200101907effffffffffffffffffffffffffffffffffffffffffffffffffffffffffffff1916908160001a9053508080611c359061297c565b915050611b69565b50819550505050505092915050565b828054611c5890612919565b90600052602060002090601f016020900481019282611c7a5760008555611cc1565b82601f10611c9357805160ff1916838001178555611cc1565b82800160010185558215611cc1579182015b82811115611cc0578251825591602001919060010190611ca5565b5b509050611cce9190611cd2565b5090565b5b80821115611ceb576000816000905550600101611cd3565b5090565b6000611d02611cfd846127b3565b61278e565b905082815260208101848484011115611d1a57600080fd5b611d258482856128d7565b509392505050565b600081359050611d3c81612d0d565b92915050565b600081359050611d5181612d24565b92915050565b600081359050611d6681612d3b565b92915050565b600082601f830112611d7d57600080fd5b8135611d8d848260208601611cef565b91505092915050565b600081359050611da581612d52565b92915050565b600060208284031215611dbd57600080fd5b6000611dcb84828501611d2d565b91505092915050565b60008060008060808587031215611dea57600080fd5b6000611df887828801611d42565b945050602085013567ffffffffffffffff811115611e1557600080fd5b611e2187828801611d6c565b935050604085013567ffffffffffffffff811115611e3e57600080fd5b611e4a87828801611d6c565b925050606085013567ffffffffffffffff811115611e6757600080fd5b611e7387828801611d6c565b91505092959194509250565b600080600080600060a08688031215611e9757600080fd5b600086013567ffffffffffffffff811115611eb157600080fd5b611ebd88828901611d6c565b9550506020611ece88828901611d96565b9450506040611edf88828901611d57565b9350506060611ef088828901611d57565b925050608086013567ffffffffffffffff811115611f0d57600080fd5b611f1988828901611d6c565b9150509295509295909350565b600060208284031215611f3857600080fd5b6000611f4684828501611d96565b91505092915050565b60008060408385031215611f6257600080fd5b6000611f7085828601611d96565b925050602083013567ffffffffffffffff811115611f8d57600080fd5b611f9985828601611d6c565b9150509250929050565b600080600060608486031215611fb857600080fd5b6000611fc686828701611d96565b935050602084013567ffffffffffffffff811115611fe357600080fd5b611fef86828701611d6c565b925050604084013567ffffffffffffffff81111561200c57600080fd5b61201886828701611d6c565b9150509250925092565b6000806040838503121561203557600080fd5b600061204385828601611d96565b925050602061205485828601611d96565b9150509250929050565b6120678161287d565b82525050565b6120768161286b565b82525050565b6120858161288f565b82525050565b612094816128c5565b82525050565b60006120a5826127f9565b6120af8185612804565b93506120bf8185602086016128e6565b6120c881612a52565b840191505092915050565b600081546120e081612919565b6120ea8186612804565b9450600182166000811461210557600181146121175761214a565b60ff198316865260208601935061214a565b612120856127e4565b60005b8381101561214257815481890152600182019150602081019050612123565b808801955050505b50505092915050565b6000612160601283612804565b915061216b82612a63565b602082019050919050565b6000612183602283612804565b915061218e82612a8c565b604082019050919050565b60006121a6602583612804565b91506121b182612adb565b604082019050919050565b60006121c9602783612804565b91506121d482612b2a565b604082019050919050565b60006121ec601483612804565b91506121f782612b79565b602082019050919050565b600061220f602483612804565b915061221a82612ba2565b604082019050919050565b6000612232601e83612804565b915061223d82612bf1565b602082019050919050565b6000612255601a83612804565b915061226082612c1a565b602082019050919050565b6000612278601283612804565b915061228382612c43565b602082019050919050565b600061229b602a83612804565b91506122a682612c6c565b604082019050919050565b60006122be600d83612804565b91506122c982612cbb565b602082019050919050565b60006122e1601683612804565b91506122ec82612ce4565b602082019050919050565b612300816128bb565b82525050565b600060208201905061231b600083018461206d565b92915050565b6000604082019050612336600083018561206d565b612343602083018461207c565b9392505050565b600060608201905061235f600083018661206d565b61236c602083018561207c565b61237960408301846122f7565b949350505050565b6000602082019050818103600083015261239b818461209a565b905092915050565b600060808201905081810360008301526123bd818761209a565b905081810360208301526123d1818661209a565b905081810360408301526123e5818561209a565b90506123f4606083018461205e565b95945050505050565b6000602082019050818103600083015261241681612153565b9050919050565b6000602082019050818103600083015261243681612176565b9050919050565b6000602082019050818103600083015261245681612199565b9050919050565b60006020820190508181036000830152612476816121bc565b9050919050565b60006020820190508181036000830152612496816121df565b9050919050565b600060208201905081810360008301526124b681612202565b9050919050565b600060208201905081810360008301526124d681612225565b9050919050565b600060208201905081810360008301526124f681612248565b9050919050565b600060208201905081810360008301526125168161226b565b9050919050565b600060208201905081810360008301526125368161228e565b9050919050565b60006020820190508181036000830152612556816122b1565b9050919050565b60006020820190508181036000830152612576816122d4565b9050919050565b600060208201905061259260008301846122f7565b92915050565b60006080820190506125ad60008301876122f7565b6125ba602083018661206d565b81810360408301526125cc818561209a565b905081810360608301526125e0818461209a565b905095945050505050565b600061010082019050612601600083018b6122f7565b8181036020830152612613818a61209a565b905061262260408301896122f7565b61262f606083018861205e565b61263c608083018761207c565b61264960a083018661207c565b61265660c08301856122f7565b61266360e08301846122f7565b9998505050505050505050565b600061012082019050612686600083018c6122f7565b8181036020830152612698818b61209a565b90506126a7604083018a6122f7565b81810360608301526126b981896120d3565b90506126c8608083018861205e565b6126d560a083018761207c565b6126e260c083018661207c565b6126ef60e083018561208b565b6126fd61010083018461208b565b9a9950505050505050505050565b600060a08201905061272060008301886122f7565b818103602083015261273281876120d3565b905061274160408301866122f7565b61274e606083018561205e565b61275b608083018461207c565b9695505050505050565b600060408201905061277a60008301856122f7565b61278760208301846122f7565b9392505050565b60006127986127a9565b90506127a4828261294b565b919050565b6000604051905090565b600067ffffffffffffffff8211156127ce576127cd612a23565b5b6127d782612a52565b9050602081019050919050565b60008190508160005260206000209050919050565b600081519050919050565b600082825260208201905092915050565b6000612820826128bb565b915061282b836128bb565b9250827fffffffffffffffffffffffffffffffffffffffffffffffffffffffffffffffff038211156128605761285f6129c5565b5b828201905092915050565b60006128768261289b565b9050919050565b60006128888261289b565b9050919050565b60008115159050919050565b600073ffffffffffffffffffffffffffffffffffffffff82169050919050565b6000819050919050565b60006128d0826128bb565b9050919050565b82818337600083830152505050565b60005b838110156129045780820151818401526020810190506128e9565b83811115612913576000848401525b50505050565b6000600282049050600182168061293157607f821691505b60208210811415612945576129446129f4565b5b50919050565b61295482612a52565b810181811067ffffffffffffffff8211171561297357612972612a23565b5b80604052505050565b6000612987826128bb565b91507fffffffffffffffffffffffffffffffffffffffffffffffffffffffffffffffff8214156129ba576129b96129c5565b5b600182019050919050565b7f4e487b7100000000000000000000000000000000000000000000000000000000600052601160045260246000fd5b7f4e487b7100000000000000000000000000000000000000000000000000000000600052602260045260246000fd5b7f4e487b7100000000000000000000000000000000000000000000000000000000600052604160045260246000fd5b6000601f19601f8301169050919050565b7f496e76616c69642050726f647563742049640000000000000000000000000000600082015250565b7f496e73756666696369656e7420657468657273202d20696e206d73672e76616c60008201527f7565000000000000000000000000000000000000000000000000000000000000602082015250565b7f4f6e6c7920746865206f776e65722063616e2073656c6c20746865697220707260008201527f6f64756374000000000000000000000000000000000000000000000000000000602082015250565b7f4f6e6c7920746865206f776e65722063616e207570646174652074686569722060008201527f70726f6475637400000000000000000000000000000000000000000000000000602082015250565b7f496e76616c696420436f6d706f6e656e74204964000000000000000000000000600082015250565b7f50726f64756374206973206e6f742073656c6c61626c6520696e64697669647560008201527f616c6c7900000000000000000000000000000000000000000000000000000000602082015250565b7f4f6e6c792041646d696e2063616e207265676973746572207573657273210000600082015250565b7f50726f64756374206973206e6f7420757020666f722073616c65000000000000600082015250565b7f496e76616c69642070726f647563742049440000000000000000000000000000600082015250565b7f43616e27742073656c6c2070726f6475637420636f6d706f6e656e747320696e60008201527f646976696475616c6c7900000000000000000000000000000000000000000000602082015250565b7f496e76616c696420707269636500000000000000000000000000000000000000600082015250565b7f43616e27742073656c6c20746f20796f757273656c6600000000000000000000600082015250565b612d168161286b565b8114612d2157600080fd5b50565b612d2d8161287d565b8114612d3857600080fd5b50565b612d448161288f565b8114612d4f57600080fd5b50565b612d5b816128bb565b8114612d6657600080fd5b5056fea2646970667358221220202505670c7192818ce5cfa467549d53d1ee28690bf43c48c269a3be612b95d364736f6c634300080400334175746f6d6f7469766520537570706c696572205061796d656e7473202d204d61726b6574706c61636520666f72204175746f6d6f62696c6520696e647573747279",
  "linkReferences": {},
  "deployedLinkReferences": {}
}